:100000000C942A000C9447000C9447000C94470071
:100010000C9447000C9447000C9447000C94470044
:100020000C9447000C9447000C9447000C94470034
:100030000C9447000C9447000C9447000C94470024
:100040000C9447000C9447000C9447000C94470014
:100050000C94470011241FBECFE5D8E0DEBFCDBF12
:1000600010E0A0E6B0E0E4E4FCE002C005900D92F0
:10007000A437B107D9F720E0A4E7B0E001C01D9292
:10008000A937B207E1F70E9458050C9420060C949A
:100090000000CF93DF9300D0CDB7DEB79A8389837A
:1000A00089819A81892B49F089819A8101979A8364
:1000B000898389819A81892BB9F70F900F90DF91FD
:1000C000CF9108950C944900CF93DF9300D0CDB722
:1000D000DEB764E370E0019768F07A836983298171
:1000E0003A81A901415051095A834983232BB9F719
:1000F000019798F70F900F90DF91CF910895CF93CC
:10010000DF9300D0CDB7DEB764E172E0019768F00D
:100110007A83698329813A81A901415051095A831F
:100120004983232BB9F7019798F70F900F90DF9130
:10013000CF910895FB01843691053CF120E001C088
:10014000232F31E0320F8456910984369105C4F78C
:100150003323D9F0DF0111962F5C20838A3091057B
:10016000DCF020E001C0232F31E0320F0A978A3003
:100170009105CCF72F5CFD0131962C9318161906CA
:100180004CF4805D8083118208958A309105B4F328
:10019000DF01E7CF80E3F6CF20E3EDCF803127E228
:1001A00092070CF458C09C0120513742203147E29D
:1001B00034070CF45EC0205137422031A7E23A07E1
:1001C0000CF45AC08053954722E0FB0131962F5C16
:1001D000DB012C93883EB3E09B070CF453C020E076
:1001E00001C0232F31E0320F885E9340883E43E008
:1001F0009407BCF72F5CBF016F5F7F4F208384366D
:100200009105ECF120E001C0232F31E0320F84563C
:10021000910984369105C4F72F5CFB016F5F7F4F16
:1002200020838A30910584F120E001C0232F31E042
:10023000320F0A978A309105CCF72F5CFB0131967B
:10024000DB012C931816190624F4805D808311823B
:10025000089580E3FBCF883EB3E09B0714F0FB01D9
:10026000BECF8436910574F68A309105ECF6FB0119
:10027000E9CFC90120E0A9CFC90121E0A6CFFB0148
:1002800020E3CCCF20E3B7CF20E3D8CF11B886E46A
:1002900080B984E086BF85B3836085BB0895FC0187
:1002A000A09A85B38C7F85BB85B3836085BB84B3FF
:1002B0008C7F84BB85B3836085BB91E020E533EC04
:1002C00080E074EA64E854E976BF06B607FE06C02B
:1002D0001BC02150310906B607FC16C02115310597
:1002E000C1F7292F220F23B966BF06B607FE00C04B
:1002F00020E030E0A89541B14C7F4831E9F056BF8D
:100300009F5F903809F70895492F440F43B966BF9E
:1003100006B607FCEFCF2115310521F4E9CF2115F1
:10032000310541F32150310906B607FEF8CFA895F3
:1003300041B14C7F483119F790838F5F3196DFCF01
:1003400094EA96BF06B607FC44C020E137E203C03A
:1003500021153105A1F12150310906B607FEF8CF6C
:10036000880F83B984E886BF06B607FC08C021154C
:10037000310561F12150310906B607FEF8CF8FEF44
:10038000840F4423A1F0FB0144E8919193B946BF47
:1003900006B607FE06C008C02150310906B607FCA4
:1003A00003C021153105C1F7A895815070F784E984
:1003B00086BF81E0232B11F080E008950895880F17
:1003C00083B984E886BF06B607FCD9CF20E030E0C9
:1003D000D6CF880F83B984E886BF20E137E206B61E
:1003E00007FEC8CFCCCF94EA96BF06B607FC98C0EC
:1003F000E0E1F7E202C0309711F1319706B607FE4F
:10040000FACF982F990F93B994E896BF06B607FCD8
:1004100006C03097D1F0319706B607FEFACF63B920
:1004200094E896BF06B607FC18C0309719F413C0BD
:10043000309799F0319706B607FEFACF0EC0982F85
:10044000990F93B994E896BF96B763B994E896BFAD
:1004500006B607FE00C0E0E0F0E0A89594EA96BF7B
:1004600006B607FE05C047C0319706B607FC43C075
:100470003097D1F7880F816083B984EC86BF06B6C8
:1004800007FE00C0E0E0F0E02230C8F0DA012250C0
:10049000822F90E00196480F591F94EC96BF06B644
:1004A00007FE05C006C0319706B607FC02C03097AC
:1004B000D1F783B18D93A895A417B50779F784E890
:1004C00086BF06B607FE05C00DC0319706B607FC0D
:1004D00009C03097D1F783B1FA01808384E986BFE0
:1004E00081E0089583B1DA018C9384E986BF81E0CD
:1004F000EF2BA1F40895880F816083B984EC86BF47
:1005000006B607FCC1CF309721F4BCCF309709F471
:10051000BBCF319706B607FEF9CFB6CF80E008957E
:10052000982F990F93B994E896BF06B607FC03C0BD
:10053000E0E1F7E270CF63B996BFE0E1F7E206B61B
:1005400007FE78CF8ACF84EA86BF06B607FEFDCFC6
:1005500081B1887F883039F081B1887F803119F08E
:1005600081B1887F089580E0089584E986BF089569
:1005700088EE93E0A0E0B0E0809374009093750063
:10058000A0937600B093770006B607FC2EC087EEE6
:1005900093E0A0E0B0E08093740090937500A09386
:1005A0007600B09377001AC0809174009091750026
:1005B000A0917600B0917700AC01BD014150510986
:1005C000610971094093740050937500609376003F
:1005D00070937700892B8A2B8B2B39F081E090E088
:1005E0000E94490006B607FEDFCF089548EE53E0AB
:1005F00060E070E040937400509375006093760063
:100600007093770083B984E886BF06B607FEFDCFF6
:1006100081B1887F883219F081B1887F089580E0A8
:100620000895CF93C82F0E94A30280917800880F6D
:100630000E94F6028C2F0E94F6020E94B50288EEFC
:1006400093E0CF910C94490090917800911101C0F2
:1006500008950C941103CF93DF939091780091113A
:1006600003C0DF91CF910895C62FD82F0E94A30217
:1006700080917800880F0E94F6028D2F0E94F6026A
:100680008C2F0E94F6020E94B50288EE93E0DF9163
:10069000CF910C944900CF93C82F8091780081119D
:1006A00012C084EF91E00E94490080917800882375
:1006B00029F08C2F837F88600E94110380ED97E0E2
:1006C000CF910C9449008C2F8C600E941103E9CFCC
:1006D000CF93C82F80917800882321F08C2F8860D9
:1006E0000E9411038C2FCF910C944B03CF93DF9377
:1006F00090917800992349F1C82FD82FD07F8D2F62
:1007000088600E9411038091780081112AC088EED0
:1007100093E00E9449008091780081112EC088EEFC
:1007200093E00E94490080917800811131C088EEE9
:1007300093E00E94490080917800811109C088EE01
:1007400093E0DF91CF910C944900DF91CF91089510
:1007500088E00E94110388EE93E0DF91CF910C9422
:1007600049008D2F8C600E94110388EE93E00E9457
:10077000490080917800882391F288E00E9411035B
:1007800088EE93E00E94490080917800882379F2F6
:1007900080E1C89FE00111248C2F88600E94110322
:1007A0008C2F8C6090917800992309F20E9411039C
:1007B00088EE93E00E94490080917800882309F434
:1007C000BECFC6CF84B3836084BB85B3836085BB53
:1007D00084B38C7F84BB8CE080B988EE93E00E9468
:1007E00049000E94A3028EE70E94F60281B18C7F2D
:1007F0008831A1F10E94B5020E94A3028EE40E94FA
:10080000F60281B18C7F883119F487E280937800F9
:100810000E94B50284E690E00E94490083E00E94B5
:10082000760383E00E94760383E00E94760382E0F1
:100830000E94760388E20E9476038CE00E94760391
:1008400081E00E94760386E00E94760380E29EE4C7
:100850000E9449008091780090E008958FE3809392
:100860007800C8CFCF93DF9390917800992349F116
:10087000C82FD82FD07F8D2F89600E9411038091BF
:10088000780081112AC088EE93E00E94490080918F
:10089000780081112EC088EE93E00E94490080917B
:1008A0007800811131C088EE93E00E944900809168
:1008B0007800811109C088EE93E0DF91CF910C940C
:1008C0004900DF91CF91089588E00E94110388EEDE
:1008D00093E0DF91CF910C9449008D2F8D600E94A1
:1008E000110388EE93E00E944900809178008823EC
:1008F00091F288E00E94110388EE93E00E94490083
:1009000080917800882379F280E1C89FE00111246A
:100910008C2F89600E9411038C2F8D60909178003C
:10092000992309F20E94110388EE93E00E94490086
:1009300080917800882309F4BECFC6CFBF92CF92B2
:10094000DF92EF92FF920F931F93CF93DF938C016F
:10095000B62E81E0681709F45DC092E0691709F4CA
:100960005DC0E3E06E1709F45DC0F4E06F1709F4B1
:100970005DC07801C0E0D0E020E030E00BC069014C
:10098000FFEFCF1ADF0A0E94320496012196FFEF93
:10099000EF1AFF0AF80101900020E9F73197E01BF8
:1009A000F10BCE17DF07D8F4C032D105C1F02031EA
:1009B000310561F0F70180818A3009F791E0B916BD
:1009C000C1F06901EFEFCE1ADE0ADDCF81E0B81683
:1009D000B1F0F701808191E1C92ED12CD4CFDF9104
:1009E000CF911F910F91FF90EF90DF90CF90BF902C
:1009F000089580EC0E94760321E030E0C7CF84E1C7
:100A00000E947603F70180818A3099F3CC24C39445
:100A1000D12CB9CF80E80E947603ABCF80EC0E9446
:100A20007603A7CF84E90E947603A3CF84ED0E94CA
:100A300076039FCFEF92FF920F931F93CF93DF9395
:100A400020917800211107C0DF91CF911F910F9164
:100A5000FF90EF9008958C0188EC0E947603780156
:100A6000C0E0D0E009C0C032D10571F3F701819137
:100A70007F010E9432042196F80101900020E9F7DD
:100A80003197E01BF10BCE17DF0768F3DF91CF91B1
:100A90001F910F91FF90EF90089580917800811140
:100AA00001C0089581E00E94760382E00C947603F1
:100AB000CF93DF93CDB7DEB7AA970FB6F894DEBF1A
:100AC0000FBECDBF84EF89A78EE28AA75E018FE1BA
:100AD000A80EB11C8AE0F50111928A95E9F70E94EF
:100AE00046010E94E203912C3BC042E0BE01675DDB
:100AF0007F4F87E70E94A0018AE090E00E947F007C
:100B000022E0A50166EF87E70E94F30162E080E63C
:100B100090E00E949E048F8D4AE050E0BE016B5E23
:100B20007F4F90E00E94EB0560E0CE0145960E9469
:100B30009E0460E089E690E00E949E0488A14AE05D
:100B400050E0BE016B5E7F4F90E00E94EB0560E0DD
:100B5000CE0145960E949E0484E690E00E947F00AC
:100B60009110C3CFCE0101960E944F01C82E0E9462
:100B70004D0561E08BE690E00E949E04CC2061F37D
:100B80008E010F5F1F4FCA94D12CFFEFCF1ADF0ADF
:100B9000C00ED11E03C00C151D05F1F27801F8013D
:100BA00081918F014AE050E0BE016B5E7F4F90E083
:100BB0000E94EB0560E0CE0145960E949E0460E035
:100BC00081E790E00E949E04F7018081873719F742
:100BD00099249394E0CF4532510520F4423010F02F
:100BE0000C94F605FB011082CB010895BB27FB0195
:100BF0005527AA27880F991FAA1FA41710F0A41B16
:100C000083955051B9F7A05DAA3308F0A95DA1936F
:100C1000009779F7B111B1931192CB010C941006A2
:100C2000DC01FC01672F71917723E1F7329704C053
:100C30007C916D9370836291AE17BF07C8F30895DE
:040C4000F894FFCF56
:100C4400424D503138303A20002C004932433A208A
:040C5400002F00006D
:00000001FF
