:100000000C942A000C9447000C9447000C94470071
:100010000C9447000C9447000C9447000C94470044
:100020000C9447000C9447000C9447000C94470034
:100030000C9447000C9447000C9447000C94470024
:100040000C9447000C9447000C9447000C94470014
:100050000C94470011241FBECFE5D8E0DEBFCDBF12
:1000600010E0A0E6B0E0ECECFAE002C005900D92E2
:10007000A636B107D9F720E0A6E6B0E001C01D9290
:10008000AB36B207E1F70E9458050C9464050C9456
:10009000000011B886E480B984E086BF85B3836030
:1000A00085BB0895FC01A09A85B38C7F85BB85B381
:1000B000836085BB84B38C7F84BB85B3836085BB41
:1000C00091E020E533EC80E074EA64E854E976BF1F
:1000D00006B607FE06C01BC02150310906B607FC54
:1000E00016C021153105C1F7292F220F23B966BF8C
:1000F00006B607FE00C020E030E0A89541B14C7F75
:100100004831E9F056BF9F5F903809F70895492FAD
:10011000440F43B966BF06B607FCEFCF2115310582
:1001200021F4E9CF2115310541F32150310906B6FB
:1001300007FEF8CFA89541B14C7F483119F790835D
:100140008F5F3196DFCF94EA96BF06B607FC44C0B6
:1001500020E137E203C021153105A1F12150310919
:1001600006B607FEF8CF880F83B984E886BF06B6C7
:1001700007FC08C02115310561F12150310906B68F
:1001800007FEF8CF8FEF840F4423A1F0FB0144E872
:10019000919193B946BF06B607FE06C008C021502C
:1001A000310906B607FC03C021153105C1F7A89532
:1001B000815070F784E986BF81E0232B11F080E045
:1001C00008950895880F83B984E886BF06B607FCB2
:1001D000D9CF20E030E0D6CF880F83B984E886BF3E
:1001E00020E137E206B607FEC8CFCCCF94EA96BF2F
:1001F00006B607FC98C0E0E1F7E202C0309711F1C3
:10020000319706B607FEFACF982F990F93B994E865
:1002100096BF06B607FC06C03097D1F0319706B6F8
:1002200007FEFACF63B994E896BF06B607FC18C07C
:10023000309719F413C0309799F0319706B607FE3E
:10024000FACF0EC0982F990F93B994E896BF96B73E
:1002500063B994E896BF06B607FE00C0E0E0F0E0A0
:10026000A89594EA96BF06B607FE05C047C0319729
:1002700006B607FC43C03097D1F7880F816083B979
:1002800084EC86BF06B607FE00C0E0E0F0E0223056
:10029000C8F0DA012250822F90E00196480F591FD2
:1002A00094EC96BF06B607FE05C006C0319706B6A9
:1002B00007FC02C03097D1F783B18D93A895A4179E
:1002C000B50779F784E886BF06B607FE05C00DC0FE
:1002D000319706B607FC09C03097D1F783B1FA0110
:1002E000808384E986BF81E0089583B1DA018C932D
:1002F00084E986BF81E0EF2BA1F40895880F816027
:1003000083B984EC86BF06B607FCC1CF309721F4D1
:10031000BCCF309709F4BBCF319706B607FEF9CFB3
:10032000B6CF80E00895982F990F93B994E896BFBF
:1003300006B607FC03C0E0E1F7E270CF63B996BFF1
:10034000E0E1F7E206B607FE78CF8ACF84EA86BFFF
:1003500006B607FEFDCF81B1887F883039F081B1C4
:10036000887F803119F081B1887F089580E00895F9
:1003700084E986BF089588EE93E0A0E0B0E0809322
:10038000660090936700A0936800B093690006B67A
:1003900007FC2EC087EE93E0A0E0B0E080936600FB
:1003A00090936700A0936800B09369001AC0809191
:1003B000660090916700A0916800B0916900AC015F
:1003C000BD01415051096109710940936600509384
:1003D00067006093680070936900892B8A2B8B2BD0
:1003E00039F081E090E00E945B0406B607FEDFCFA3
:1003F000089548EE53E060E070E04093660050934B
:100400006700609368007093690083B984E886BFD1
:1004100006B607FEFDCF81B1887F883219F081B121
:10042000887F089580E00895CF93C82F0E94A60189
:1004300080916A00880F0E94F9018C2F0E94F901B7
:100440000E94B80188EE93E0CF910C945B049091E8
:100450006A00911101C008950C941402CF93DF93A8
:1004600090916A00911103C0DF91CF910895C62F3A
:10047000D82F0E94A60180916A00880F0E94F9017E
:100480008D2F0E94F9018C2F0E94F9010E94B80162
:1004900088EE93E0DF91CF910C945B04CF93C82F4B
:1004A00080916A00811112C084EF91E00E945B0488
:1004B00080916A00882329F08C2F837F88600E94B6
:1004C000140280ED97E0CF910C945B048C2F8C602C
:1004D0000E941402E9CFCF93C82F80916A0088232D
:1004E00021F08C2F88600E9414028C2FCF910C94E5
:1004F0004E02CF93DF9390916A00992349F1C82F60
:10050000D82FD07F8D2F88600E94140280916A00BE
:1005100081112AC088EE93E00E945B0480916A00FA
:1005200081112EC088EE93E00E945B0480916A00E6
:10053000811131C088EE93E00E945B0480916A00D3
:10054000811109C088EE93E0DF91CF910C945B0498
:10055000DF91CF91089588E00E94140288EE93E025
:10056000DF91CF910C945B048D2F8C600E9414025C
:1005700088EE93E00E945B0480916A00882391F2E8
:1005800088E00E94140288EE93E00E945B04809150
:100590006A00882379F280E1C89FE00111248C2F42
:1005A00088600E9414028C2F8C6090916A009923BD
:1005B00009F20E94140288EE93E00E945B0480918D
:1005C0006A00882309F4BECFC6CF84B3836084BB9E
:1005D00085B3836085BB84B38C7F84BB8CE080B99A
:1005E00088EE93E00E945B040E94A6018EE70E94C1
:1005F000F90181B18C7F8831A1F10E94B8010E947C
:10060000A6018EE40E94F90181B18C7F883119F432
:1006100087E280936A000E94B80184E690E00E941D
:100620005B0483E00E94790283E00E94790283E008
:100630000E94790282E00E94790288E20E94790297
:100640008CE00E94790281E00E94790286E00E949B
:10065000790280E29EE40E945B0480916A0090E04F
:1006600008958FE380936A00C8CFCF93DF93909172
:100670006A00992349F1C82FD82FD07F8D2F896028
:100680000E94140280916A0081112AC088EE93E0D2
:100690000E945B0480916A0081112EC088EE93E075
:1006A0000E945B0480916A00811131C088EE93E062
:1006B0000E945B0480916A00811109C088EE93E07A
:1006C000DF91CF910C945B04DF91CF91089588E086
:1006D0000E94140288EE93E0DF91CF910C945B04AA
:1006E0008D2F8D600E94140288EE93E00E945B04BF
:1006F00080916A00882391F288E00E94140288EEBB
:1007000093E00E945B0480916A00882379F280E183
:10071000C89FE00111248C2F89600E9414028C2F45
:100720008D6090916A00992309F20E94140288EE6C
:1007300093E00E945B0480916A00882309F4BECF95
:10074000C6CFBF92CF92DF92EF92FF920F931F938B
:10075000CF93DF938C01B62E81E0681709F45DC05A
:1007600092E0691709F45DC0E3E06E1709F45DC01B
:10077000F4E06F1709F45DC07801C0E0D0E020E03C
:1007800030E00BC06901FFEFCF1ADF0A0E9435038A
:1007900096012196FFEFEF1AFF0AF8010190002061
:1007A000E9F73197E01BF10BCE17DF07D8F4C03221
:1007B000D105C1F02031310561F0F70180818A3027
:1007C00009F791E0B916C1F06901EFEFCE1ADE0A20
:1007D000DDCF81E0B816B1F0F701808191E1C92E3B
:1007E000D12CD4CFDF91CF911F910F91FF90EF903B
:1007F000DF90CF90BF90089580EC0E94790221E0B5
:1008000030E0C7CF84E10E947902F70180818A300D
:1008100099F3CC24C394D12CB9CF80E80E947902FB
:10082000ABCF80EC0E947902A7CF84E90E947902C5
:10083000A3CF84ED0E9479029FCFEF92FF920F9396
:100840001F93CF93DF9320916A00211107C0DF919E
:10085000CF911F910F91FF90EF9008958C0188EC3C
:100860000E9479027801C0E0D0E009C0C032D10511
:1008700071F3F70181917F010E9435032196F80100
:1008800001900020E9F73197E01BF10BCE17DF074D
:1008900068F3DF91CF911F910F91FF90EF90089532
:1008A00080916A00811101C0089581E00E9479025F
:1008B00082E00C947902CF93DF9300D0CDB7DEB7FE
:1008C0009A83898389819A81892B49F089819A81C8
:1008D00001979A83898389819A81892BB9F70F902F
:1008E0000F90DF91CF9108950C945B04CF93DF9329
:1008F00000D0CDB7DEB764E370E0019768F07A838B
:10090000698329813A81A901415051095A83498358
:10091000232BB9F7019798F70F900F90DF91CF91A4
:100920000895CF93DF9300D0CDB7DEB764E172E0D6
:10093000019768F07A83698329813A81A90141503E
:1009400051095A834983232BB9F7019798F70F90E0
:100950000F90DF91CF910895FB01843691053CF112
:1009600020E001C0232F31E0320F845691098436F4
:100970009105C4F73323D9F0DF0111962F5C208352
:100980008A309105DCF020E001C0232F31E0320FE6
:100990000A978A309105CCF72F5CFD0131962C9394
:1009A000181619064CF4805D8083118208958A30F0
:1009B0009105B4F3DF01E7CF80E3F6CF20E3EDCF7D
:1009C000803127E292070CF458C09C012051374235
:1009D000203147E234070CF45EC020513742203109
:1009E000A7E23A070CF45AC08053954722E0FB0176
:1009F00031962F5CDB012C93883EB3E09B070CF40F
:100A000053C020E001C0232F31E0320F885E9340B5
:100A1000883E43E09407BCF72F5CBF016F5F7F4FB8
:100A2000208384369105ECF120E001C0232F31E0D2
:100A3000320F8456910984369105C4F72F5CFB016F
:100A40006F5F7F4F20838A30910584F120E001C0E1
:100A5000232F31E0320F0A978A309105CCF72F5CB3
:100A6000FB013196DB012C931816190624F4805DE6
:100A700080831182089580E3FBCF883EB3E09B071B
:100A800014F0FB01BECF8436910574F68A309105CF
:100A9000ECF6FB01E9CFC90120E0A9CFC90121E0B3
:100AA000A6CFFB0120E3CCCF20E3B7CF20E3D8CF04
:100AB0000E9449000E94E50261E080E690E00E9409
:0C0AC000A10380E090E00895F894FFCFBF
:060ACC0048454C4C4F00B0
:00000001FF
