:100000000C942A000C9434000C9434000C943400AA
:100010000C9434000C9434000C9434000C94340090
:100020000C9434000C9434000C9434000C94340080
:100030000C9434000C9434000C9434000C94340070
:100040000C9434000C9434000C9434000C94340060
:100050000C94340011241FBECFE5D8E0DEBFCDBF25
:100060000E94D5010C9454020C940000CF93DF93AE
:1000700000D0CDB7DEB79A83898389819A81892B95
:1000800049F089819A8101979A83898389819A812C
:10009000892BB9F70F900F90DF91CF9108950C94B1
:1000A0003600CF93DF9300D0CDB7DEB764E370E0C6
:1000B000019768F07A83698329813A81A9014150C7
:1000C00051095A834983232BB9F7019798F70F9069
:1000D0000F90DF91CF910895CF93DF9300D0CDB7EC
:1000E000DEB764E172E0019768F07A836983298161
:1000F0003A81A901415051095A834983232BB9F709
:10010000019798F70F900F90DF91CF910895FB0121
:10011000843691053CF120E001C0232F31E0320FFD
:100120008456910984369105C4F73323D9F0DF0151
:1001300011962F5C20838A309105DCF020E001C00D
:10014000232F31E0320F0A978A309105CCF72F5CCC
:10015000FD0131962C93181619064CF4805D8083AE
:10016000118208958A309105B4F3DF01E7CF80E36F
:10017000F6CF20E3EDCF803127E292070CF458C090
:100180009C0120513742203147E234070CF45EC015
:10019000205137422031A7E23A070CF45AC080536D
:1001A000954722E0FB0131962F5CDB012C93883EC2
:1001B000B3E09B070CF453C020E001C0232F31E0D3
:1001C000320F885E9340883E43E09407BCF72F5C73
:1001D000BF016F5F7F4F208384369105ECF120E0F3
:1001E00001C0232F31E0320F8456910984369105E6
:1001F000C4F72F5CFB016F5F7F4F20838A3091052E
:1002000084F120E001C0232F31E0320F0A978A30B9
:100210009105CCF72F5CFB013196DB012C9318166E
:10022000190624F4805D80831182089580E3FBCF5A
:10023000883EB3E09B0714F0FB01BECF84369105E6
:1002400074F68A309105ECF6FB01E9CFC90120E094
:10025000A9CFC90121E0A6CFFB0120E3CCCF20E349
:10026000B7CF20E3D8CF379A3E983F983E9A86B1D1
:10027000876086B9089516B808953E983F988130F2
:1002800031F0823009F008953E9A3F9A08953E9ADF
:100290000895883080F497B1907E97B997B1892BF3
:1002A00087B93D98369A349BFECF329A84B125B1F6
:1002B00090E0922B089580E090E00895883068F4F3
:1002C00097B1907E97B997B1892B87B93D9A369AA5
:1002D000349BFECF329A85B1089580E008959C0149
:1002E00088E18AB9C901A0E0B0E0880F991FAA1F70
:1002F000BB1F880F991FAA1FBB1F9C01AD01220FB6
:10030000331F441F551F220F331F441F551F60E02A
:1003100072E18AE790E00E940802DA01C9010197C0
:10032000A109B109892F9A2FAB2FBB2780BD21507E
:1003300029B986E880BD08955F9BFECF8CB10895F2
:100340005D9BFECF8CB90895FC019081992339F013
:1003500031965D9BFECF9CB991919111FACF089592
:10036000CF93DF93CDB7DEB72A970FB6F894DEBFF1
:100370000FBECDBF4AE0BE016F5F7F4F90E00E948D
:100380002A028981882341F0FE0132965D9BFECFCF
:100390008CB981918111FACF2A960FB6F894DEBFFD
:1003A0000FBECDBFDF91CF910895CF93DF9300D0E3
:1003B00000D000D0CDB7DEB78FEF87BB0E943301EE
:1003C00080E096E90E946F0180E00E9449019C0153
:1003D000369527953695279528BB4AE0BE016F5F75
:1003E0007F4F0E942A028981882351F08E010E5F7F
:1003F0001F4F0E94A001F80181918F018111F9CF57
:100400008AE00E94A00184EF91E00E946C00DCCFA2
:10041000A1E21A2EAA1BBB1BFD010DC0AA1FBB1F08
:10042000EE1FFF1FA217B307E407F50720F0A21B7A
:10043000B30BE40BF50B661F771F881F991F1A94E7
:1004400069F760957095809590959B01AC01BD0111
:10045000CF010895BB27FB015527AA27880F991FB5
:10046000AA1FA41710F0A41B83955051B9F7A05DE3
:10047000AA3308F0A95DA193009779F7B111B19360
:100480001192CB010C944402DC01FC01672F7191A5
:100490007723E1F7329704C07C916D93708362916A
:0C04A000AE17BF07C8F30895F894FFCF13
:00000001FF
