:100000000C942A000C9447000C9447000C94470071
:100010000C9447000C9447000C9447000C94470044
:100020000C9447000C9447000C9447000C94470034
:100030000C9447000C941B010C9447000C9447004F
:100040000C9447000C9447000C9447000C94470014
:100050000C94470011241FBECFE5D8E0DEBFCDBF12
:1000600011E0A0E6B0E0E2EDF4E102C005900D92EF
:10007000AC30B107D9F721E0ACE0B1E001C01D928E
:10008000AC3BB207E1F70E94F5060C94670A0C94AA
:10009000000080E4E2E1F1E0DF011D928A95E9F7DA
:1000A00010920C0108950E945A019F938F9380E64D
:1000B00090E09F938F9382E591E09F938F930E94AE
:1000C0006D0782E591E00E94B50184E890E00E940E
:1000D000B5010F900F900F900F900F900F9062E06E
:1000E00082E591E00C943E050E94ED0561E082E11D
:1000F00091E00E943E0540910C0150E063E670E003
:1001000082E191E00E944507892B09F46CC040917F
:100110000C0150E06DE770E082E191E00E9445073C
:10012000892B09F46CC040910C0150E066E870E046
:1001300082E191E00E944507892B09F458C0409163
:100140000C0150E06FE870E082E191E00E94450709
:10015000892B09F458C040910C0150E068E970E027
:1001600082E191E00E944507892B09F450C040913B
:100170000C0150E061EA70E082E191E00E944507E5
:10018000892B09F448C040910C0150E06AEA70E004
:1001900082E191E00E944507892B69F140910C01B1
:1001A00050E063EB70E082E191E00E944507892B0B
:1001B000D1F140910C0150E06CEB70E082E191E0F4
:1001C0000E944507892B59F140910C0150E064ECE5
:1001D00070E082E191E00E944507892B41F58FEFA5
:1001E00087BB18BA08958AE690E00C94B50181E0C7
:1001F00090E00C94530085E090E00C94530080E074
:1002000090E00C94530082E090E00C94530083E063
:1002100090E00C94530084E090E00C9453008FEF36
:1002200087BB88BB089586E090E00C9453008DEC6A
:1002300090E00C94B5011F920F920FB60F9211240B
:100240008F939F93EF93FF938CB190910C019F3309
:1002500050F4E0910C0191E09E0F90930C01F0E0BE
:10026000EE5EFE4F80838A3031F4E0910C01F0E0C5
:10027000EE5EFE4F1082FF91EF919F918F910F9054
:100280000FBE0F901F901895379A3E983F983E9A50
:1002900086B1876086B9089516B808953E983F984C
:1002A000813031F0823009F008953E9A3F9A0895E6
:1002B0003E9A0895883080F497B1907E97B997B1AF
:1002C000892B87B93D98369A349BFECF329A84B1F8
:1002D00025B190E0922B089580E090E00895883059
:1002E00068F497B1907E97B997B1892B87B93D9AF9
:1002F000369A349BFECF329A85B1089580E00895F6
:100300009C0188E18AB9C901A0E0B0E0880F991F7B
:10031000AA1FBB1F880F991FAA1FBB1F9C01AD01FD
:10032000220F331F441F551F220F331F441F551F19
:1003300060E072E18AE790E00E942307DA01C901D8
:100340000197A109B109892F9A2FAB2FBB2780BD37
:10035000215029B986E880BD08955F9BFECF8CB1FE
:1003600008955D9BFECF8CB90895FC01908199237F
:1003700039F031965D9BFECF9CB991919111FACFE6
:100380000895CF93DF93CDB7DEB72A970FB6F894D1
:10039000DEBF0FBECDBF4AE0BE016F5F7F4F90E072
:1003A0000E9453078981882341F0FE0132965D9BAC
:1003B000FECF8CB981918111FACF2A960FB6F894AD
:1003C000DEBF0FBECDBFDF91CF91089511B886E497
:1003D00080B984E086BF85B3836085BB0895FC0146
:1003E000A09A85B38C7F85BB85B3836085BB84B3BE
:1003F0008C7F84BB85B3836085BB91E020E533ECC3
:1004000080E074EA64E854E976BF06B607FE06C0E9
:100410001BC02150310906B607FC16C02115310555
:10042000C1F7292F220F23B966BF06B607FE00C009
:1004300020E030E0A89541B14C7F4831E9F056BF4B
:100440009F5F903809F70895492F440F43B966BF5D
:1004500006B607FCEFCF2115310521F4E9CF2115B0
:10046000310541F32150310906B607FEF8CFA895B2
:1004700041B14C7F483119F790838F5F3196DFCFC0
:1004800094EA96BF06B607FC44C020E137E203C0F9
:1004900021153105A1F12150310906B607FEF8CF2B
:1004A000880F83B984E886BF06B607FC08C021150B
:1004B000310561F12150310906B607FEF8CF8FEF03
:1004C000840F4423A1F0FB0144E8919193B946BF06
:1004D00006B607FE06C008C02150310906B607FC63
:1004E00003C021153105C1F7A895815070F784E943
:1004F00086BF81E0232B11F080E008950895880FD6
:1005000083B984E886BF06B607FCD9CF20E030E087
:10051000D6CF880F83B984E886BF20E137E206B6DC
:1005200007FEC8CFCCCF94EA96BF06B607FC98C0AA
:10053000E0E1F7E202C0309711F1319706B607FE0D
:10054000FACF982F990F93B994E896BF06B607FC97
:1005500006C03097D1F0319706B607FEFACF63B9DF
:1005600094E896BF06B607FC18C0309719F413C07C
:10057000309799F0319706B607FEFACF0EC0982F44
:10058000990F93B994E896BF96B763B994E896BF6C
:1005900006B607FE00C0E0E0F0E0A89594EA96BF3A
:1005A00006B607FE05C047C0319706B607FC43C034
:1005B0003097D1F7880F816083B984EC86BF06B687
:1005C00007FE00C0E0E0F0E02230C8F0DA0122507F
:1005D000822F90E00196480F591F94EC96BF06B603
:1005E00007FE05C006C0319706B607FC02C030976B
:1005F000D1F783B18D93A895A417B50779F784E84F
:1006000086BF06B607FE05C00DC0319706B607FCCB
:1006100009C03097D1F783B1FA01808384E986BF9E
:1006200081E0089583B1DA018C9384E986BF81E08B
:10063000EF2BA1F40895880F816083B984EC86BF05
:1006400006B607FCC1CF309721F4BCCF309709F430
:10065000BBCF319706B607FEF9CFB6CF80E008953D
:10066000982F990F93B994E896BF06B607FC03C07C
:10067000E0E1F7E270CF63B996BFE0E1F7E206B6DA
:1006800007FE78CF8ACF84EA86BF06B607FEFDCF85
:1006900081B1887F883039F081B1887F803119F04D
:1006A00081B1887F089580E0089584E986BF089528
:1006B00088EE93E0A0E0B0E080930D0190930E01EE
:1006C000A0930F01B093100106B607FC2EC087EE71
:1006D00093E0A0E0B0E080930D0190930E01A09311
:1006E0000F01B09310011AC080910D0190910E017D
:1006F000A0910F01B0911001AC01BD014150510911
:100700006109710940930D0150930E0160930F012F
:1007100070931001892B8A2B8B2B39F081E090E0AC
:100720000E94F80506B607FEDFCF089548EE53E0B5
:1007300060E070E040930D0150930E0160930F0153
:100740007093100183B984E886BF06B607FEFDCF1B
:1007500081B1887F883219F081B1887F089580E067
:100760000895CF93C82F0E94430380911101880FF1
:100770000E9496038C2F0E9496030E94550388EED8
:1007800093E0CF910C94F80590911101911101C063
:1007900008950C94B103CF93DF93909111019111BF
:1007A00003C0DF91CF910895C62FD82F0E94430335
:1007B00080911101880F0E9496038D2F0E9496034D
:1007C0008C2F0E9496030E94550388EE93E0DF91E0
:1007D000CF910C94F805CF93C82F8091110181110E
:1007E00012C084EF91E00E94F805809111018823E6
:1007F00029F08C2F837F88600E94B10380ED97E001
:10080000CF910C94F8058C2F8C600E94B103E9CF36
:10081000CF93C82F80911101882321F08C2F8860FD
:100820000E94B1038C2FCF910C94EB03CF93DF93F5
:1008300090911101992349F1C82FD82FD07F8D2F86
:1008400088600E94B1038091110181112AC088EE55
:1008500093E00E94F8058091110181112EC088EE6D
:1008600093E00E94F80580911101811131C088EE5A
:1008700093E00E94F80580911101811109C088EE72
:1008800093E0DF91CF910C94F805DF91CF9108951B
:1008900088E00E94B10388EE93E0DF91CF910C9441
:1008A000F8058D2F8C600E94B10388EE93E00E94C2
:1008B000F80580911101882391F288E00E94B1032C
:1008C00088EE93E00E94F80580911101882379F267
:1008D00080E1C89FE00111248C2F88600E94B10341
:1008E0008C2F8C6090911101992309F20E94B10321
:1008F00088EE93E00E94F80580911101882309F4A5
:10090000BECFC6CF84B3836084BB85B3836085BB11
:1009100084B38C7F84BB8CE080B988EE93E00E9426
:10092000F8050E9443038EE70E94960381B18C7FF5
:100930008831A1F10E9455030E9443038EE40E9476
:10094000960381B18C7F883119F487E2809311017D
:100950000E94550384E690E00E94F80583E00E941F
:10096000160483E00E94160483E00E94160482E0CD
:100970000E94160488E20E9416048CE00E9416046D
:1009800081E00E94160486E00E94160480E29EE444
:100990000E94F8058091110190E008958FE3809303
:1009A0001101C8CFCF93DF9390911101992349F1A1
:1009B000C82FD82FD07F8D2F89600E94B1038091DE
:1009C000110181112AC088EE93E00E94F805809100
:1009D000110181112EC088EE93E00E94F8058091EC
:1009E0001101811131C088EE93E00E94F8058091D9
:1009F0001101811109C088EE93E0DF91CF910C9431
:100A0000F805DF91CF91089588E00E94B10388EE48
:100A100093E0DF91CF910C94F8058D2F8D600E94AB
:100A2000B10388EE93E00E94F805809111018823BC
:100A300091F288E00E94B10388EE93E00E94F805ED
:100A400080911101882379F280E1C89FE00111248F
:100A50008C2F89600E94B1038C2F8D6090911101C1
:100A6000992309F20E94B10388EE93E00E94F805F1
:100A700080911101882309F4BECFC6CFBF92CF92D7
:100A8000DF92EF92FF920F931F93CF93DF938C012E
:100A9000B62E81E0681709F45DC092E0691709F489
:100AA0005DC0E3E06E1709F45DC0F4E06F1709F470
:100AB0005DC07801C0E0D0E020E030E00BC069010B
:100AC000FFEFCF1ADF0A0E94D20496012196FFEFB2
:100AD000EF1AFF0AF80101900020E9F73197E01BB7
:100AE000F10BCE17DF07D8F4C032D105C1F02031A9
:100AF000310561F0F70180818A3009F791E0B9167C
:100B0000C1F06901EFEFCE1ADE0ADDCF81E0B81641
:100B1000B1F0F701808191E1C92ED12CD4CFDF91C2
:100B2000CF911F910F91FF90EF90DF90CF90BF90EA
:100B3000089580EC0E94160421E030E0C7CF84E1E4
:100B40000E941604F70180818A3099F3CC24C39463
:100B5000D12CB9CF80E80E941604ABCF80EC0E9464
:100B60001604A7CF84E90E941604A3CF84ED0E9447
:100B700016049FCFEF92FF920F931F93CF93DF93B3
:100B800020911101211107C0DF91CF911F910F9189
:100B9000FF90EF9008958C0188EC0E941604780174
:100BA000C0E0D0E009C0C032D10571F3F7018191F6
:100BB0007F010E94D2042196F80101900020E9F7FC
:100BC0003197E01BF10BCE17DF0768F3DF91CF9170
:100BD0001F910F91FF90EF90089580911101811165
:100BE00001C0089581E00E94160482E00C9416046E
:100BF000CF93DF9300D0CDB7DEB79A838983898105
:100C00009A81892B49F089819A8101979A838983F6
:100C100089819A81892BB9F70F900F90DF91CF913D
:100C200008950C94F805CF93DF9300D0CDB7DEB7CD
:100C300064E370E0019768F07A83698329813A81DF
:100C4000A901415051095A834983232BB9F70197D0
:100C500098F70F900F90DF91CF910895CF93DF9386
:100C600000D0CDB7DEB764E172E0019768F07A8317
:100C7000698329813A81A901415051095A834983E5
:100C8000232BB9F7019798F70F900F90DF91CF9131
:100C90000895FB01843691053CF120E001C0232F2B
:100CA00031E0320F8456910984369105C4F733231D
:100CB000D9F0DF0111962F5C20838A309105DCF09A
:100CC00020E001C0232F31E0320F0A978A309105CE
:100CD000CCF72F5CFD0131962C93181619064CF4B5
:100CE000805D8083118208958A309105B4F3DF011D
:100CF000E7CF80E3F6CF20E3EDCF803127E2920704
:100D00000CF458C09C0120513742203147E234078F
:100D10000CF45EC0205137422031A7E23A070CF4B0
:100D20005AC08053954722E0FB0131962F5CDB01CE
:100D30002C93883EB3E09B070CF453C020E001C025
:100D4000232F31E0320F885E9340883E43E09407C2
:100D5000BCF72F5CBF016F5F7F4F20838436910506
:100D6000ECF120E001C0232F31E0320F84569109CD
:100D700084369105C4F72F5CFB016F5F7F4F2083A2
:100D80008A30910584F120E001C0232F31E0320F39
:100D90000A978A309105CCF72F5CFB013196DB0175
:100DA0002C931816190624F4805D8083118208950F
:100DB00080E3FBCF883EB3E09B0714F0FB01BECF7E
:100DC0008436910574F68A309105ECF6FB01E9CF83
:100DD000C90120E0A9CFC90121E0A6CFFB0120E392
:100DE000CCCF20E3B7CF20E3D8CF8FEF87BB1ABAA1
:100DF0008BBB0E94E6010E94820480E096E90E947B
:100E000080010E944401579A61E08EED90E00E94BB
:100E10003E0578948DEE90E00E94B50102E111E06C
:100E2000C0E4E0910C01F0E0EF5EFE4F80818A307B
:100E3000C1F70E947400F8018C2F11928A95E9F78E
:100E400010920C01EECFA1E21A2EAA1BBB1BFD01D2
:100E50000DC0AA1FBB1FEE1FFF1FA217B307E40799
:100E6000F50720F0A21BB30BE40BF50B661F771FF1
:100E7000881F991F1A9469F76095709580959095D1
:100E80009B01AC01BD01CF010895FB01DC01415084
:100E9000504030F08D910190801919F40020B9F77D
:100EA000881B990B0895BB27FB015527AA27880F9C
:100EB000991FAA1FA41710F0A41B83955051B9F7CE
:100EC000A05DAA3308F0A95DA193009779F7B1114D
:100ED000B1931192CB010C948609AEE0B0E0E3E748
:100EE000F7E00C943E0A0D891E8986E08C831A83F4
:100EF00009838FEF9FE79E838D83AE01475E5F4F2F
:100F00006F89788DCE0101960E948F07EF81F88559
:100F1000E00FF11F10822E96E4E00C945A0AABE029
:100F2000B0E0E5E9F7E00C94300A6C017B018A013E
:100F3000FC0117821682838181FFCCC1CE0101960C
:100F40003C01F6019381F70193FD859193FF819117
:100F50007F01882309F4BAC1853239F493FD859164
:100F600093FF81917F01853229F4B60190E00E94C0
:100F70009609E7CF912C212C312CFFE1F315D8F005
:100F80008B3279F038F4803279F08332A1F4232D5A
:100F900020611DC08D3261F0803369F4232D216002
:100FA00016C0832D8260382EE32DE4603E2E2AC0C9
:100FB000F32DF8601DC037FC2DC020ED280F2A301E
:100FC00040F08E32B9F436FC81C1232D2064322EDC
:100FD00019C036FE06C08AE0989E200D1124922E7C
:100FE00011C0EAE02E9E200D1124222EF32DF06276
:100FF0003F2E08C08C3621F4832D8068382E02C025
:10100000883641F4F70193FD859193FF81917F012B
:101010008111B3CF982F9F7D9554933028F40C5FA6
:101020001F4F9FE399830DC0833631F0833771F0F2
:10103000833509F059C021C0F801808189830E5F92
:101040001F4F88248394912C530113C02801F2E090
:101050004F0E511CF801A080B18036FE03C0692DEF
:1010600070E002C06FEF7FEFC5010E947B094C0169
:101070008201F32DFF773F2E16C0280122E0420E99
:10108000511CF801A080B18036FE03C0692D70E0CC
:1010900002C06FEF7FEFC5010E9470094C01F32D74
:1010A000F0683F2E820133FC1BC0822D90E0881631
:1010B0009906B0F4B60180E290E00E9496092A9465
:1010C000F4CFF50137FC859137FE81915F01B601C0
:1010D00090E00E94960921102A9421E0821A91083A
:1010E0008114910471F7E8C0843611F0893641F516
:1010F000F80137FE07C060817181828193810C5FA6
:101100001F4F08C060817181072E000C880B990B5E
:101110000E5F1F4FF32DFF763F2E97FF09C090956E
:101120008095709561957F4F8F4F9F4FF0683F2E50
:101130002AE030E0A3010E94D209882E861845C01B
:10114000853731F4232D2F7EB22E2AE030E025C0E2
:10115000932D997FB92E8F36C1F018F4883579F028
:10116000B5C0803719F0883721F0B0C0E92FE061B1
:10117000BE2EB4FE0DC0FB2DF460BF2E09C034FEA0
:101180000AC0292F2660B22E06C028E030E005C034
:1011900020E130E002C020E132E0F801B7FE07C0F4
:1011A00060817181828193810C5F1F4F06C06081D5
:1011B000718180E090E00E5F1F4FA3010E94D20971
:1011C000882E8618FB2DFF773F2E36FE0DC0232D6F
:1011D0002E7FA22E891458F434FE0BC032FC09C0B5
:1011E000832D8E7EA82E05C0B82CA32C03C0B82C4E
:1011F00001C0B92CA4FE0FC0FE01E80DF11D8081D5
:10120000803321F49A2D997EA92E09C0A2FE06C032
:10121000B394B39404C08A2D867809F0B394A3FCE8
:1012200011C0A0FE06C0B21488F4280C922C9B18A2
:101230000EC0B21460F4B60180E290E00E949609FC
:10124000B394F7CFB21418F42B1802C0982C212CA9
:10125000A4FE10C0B60180E390E00E949609A2FEB1
:1012600017C0A1FC03C088E790E002C088E590E0C9
:10127000B6010CC08A2D867859F0A1FE02C08BE21F
:1012800001C080E2A7FC8DE2B60190E00E949609C1
:10129000891438F4B60180E390E00E9496099A948C
:1012A000F7CF8A94F301E80DF11D8081B60190E03B
:1012B0000E9496098110F5CF222009F442CEB60192
:1012C00080E290E00E9496092A94F6CFF60186818A
:1012D000978102C08FEF9FEF2B96E2E10C944C0AAE
:1012E000FC010590615070400110D8F780959095F1
:1012F0008E0F9F1F0895FC016150704001900110F6
:10130000D8F7809590958E0F9F1F0895DC01FC0102
:10131000672F71917723E1F7329704C07C916D9329
:1013200070836291AE17BF07C8F308950F931F93A0
:10133000CF93DF93FB01238121FD03C08FEF9FEF4C
:101340002CC022FF16C04681578124813581421767
:10135000530744F4A081B1819D012F5F3F4F31833A
:1013600020838C93268137812F5F3F4F37832683DD
:1013700014C08B01EC01FB010084F185E02D09957F
:10138000892BE1F6D80116968D919C9117970196BD
:1013900017969C938E931697CE01DF91CF911F9154
:1013A0000F910895FA01AA27283051F1203181F1D7
:1013B000E8946F936E7F6E5F7F4F8F4F9F4FAF4F5D
:1013C000B1E03ED0B4E03CD0670F781F891F9A1F70
:1013D000A11D680F791F8A1F911DA11D6A0F711D24
:1013E000811D911DA11D20D009F468943F912AE030
:1013F000269F11243019305D3193DEF6CF01089518
:10140000462F4770405D4193B3E00FD0C9F7F6CF48
:10141000462F4F70405D4A3318F0495D31FD405210
:10142000419302D0A9F7EACFB4E0A69597958795A6
:1014300077956795BA95C9F7009761057105089585
:101440009B01AC010A2E0694579547953795279531
:10145000BA95C9F7620F731F841F951FA01D0895C9
:101460002F923F924F925F926F927F928F929F92B4
:10147000AF92BF92CF92DF92EF92FF920F931F93A2
:10148000CF93DF93CDB7DEB7CA1BDB0B0FB6F89453
:10149000DEBF0FBECDBF09942A88398848885F8493
:1014A0006E847D848C849B84AA84B984C884DF8004
:1014B000EE80FD800C811B81AA81B981CE0FD11DE8
:1014C0000FB6F894DEBF0FBECDBFED010895F894BE
:0214D000FFCF4C
:1014D2002564002A49444E3F0A004B555454595042
:1014E2005920564F4C544D455445520A004D4541E2
:1014F200533A303F0A004D4541533A313F0A004DBD
:101502004541533A323F0A004D4541533A333F0A6F
:10151200004D4541533A343F0A004D4541533A3557
:101522003F0A004D4541533A363F0A005245443A7C
:101532004F4E0A005245443A4F46460A00556E6BDA
:101542006E6F776E20636F6D6D616E640A00534338
:10155200504920564F4C544D455445520041546D0C
:101562006567613332205343504920566F6C746D66
:0C157200657465722072656164790A007E
:00000001FF
