:100000000C942A000C9447000C9447000C94470071
:100010000C9447000C9447000C9447000C94F80192
:100020000C9447000C9447000C9447000C94470034
:100030000C9447000C9447000C9447000C94470024
:100040000C9447000C9447000C9447000C94470014
:100050000C94470011241FBECFE5D8E0DEBFCDBF12
:1000600010E0A0E6B0E0E8E9FAE002C005900D92E9
:10007000AA37B107D9F720E0AAE7B0E001C01D9286
:10008000AC37B207E1F70E947A020C944A050C944F
:100090000000CF93DF9300D0CDB7DEB79A8389837A
:1000A00089819A81892B49F089819A8101979A8364
:1000B000898389819A81892BB9F70F900F90DF91FD
:1000C000CF9108950C944900CF93DF9300D0CDB722
:1000D000DEB764E370E0019768F07A836983298171
:1000E0003A81A901415051095A834983232BB9F719
:1000F000019798F70F900F90DF91CF910895CF93CC
:10010000DF9300D0CDB7DEB764E172E0019768F00D
:100110007A83698329813A81A901415051095A831F
:100120004983232BB9F7019798F70F900F90DF9130
:10013000CF910895FB01843691053CF120E001C088
:10014000232F31E0320F8456910984369105C4F78C
:100150003323D9F0DF0111962F5C20838A3091057B
:10016000DCF020E001C0232F31E0320F0A978A3003
:100170009105CCF72F5CFD0131962C9318161906CA
:100180004CF4805D8083118208958A309105B4F328
:10019000DF01E7CF80E3F6CF20E3EDCF803127E228
:1001A00092070CF458C09C0120513742203147E29D
:1001B00034070CF45EC0205137422031A7E23A07E1
:1001C0000CF45AC08053954722E0FB0131962F5C16
:1001D000DB012C93883EB3E09B070CF453C020E076
:1001E00001C0232F31E0320F885E9340883E43E008
:1001F0009407BCF72F5CBF016F5F7F4F208384366D
:100200009105ECF120E001C0232F31E0320F84563C
:10021000910984369105C4F72F5CFB016F5F7F4F16
:1002200020838A30910584F120E001C0232F31E042
:10023000320F0A978A309105CCF72F5CFB0131967B
:10024000DB012C931816190624F4805D808311823B
:10025000089580E3FBCF883EB3E09B0714F0FB01D9
:10026000BECF8436910574F68A309105ECF6FB0119
:10027000E9CFC90120E0A9CFC90121E0A6CFFB0148
:1002800020E3CCCF20E3B7CF20E3D8CF9C0188E197
:100290008AB9C901A0E0B0E0880F991FAA1FBB1F4F
:1002A000880F991FAA1FBB1F9C01AD01220F331F8E
:1002B000441F551F220F331F441F551F60E072E17A
:1002C0008AE790E00E941B03DA01C9010197A109A6
:1002D000B109892F9A2FAB2FBB2780BD215029B997
:1002E00086E880BD08955F9BFECF8CB108955D9B2D
:1002F000FECF8CB90895FC019081992339F0319695
:100300005D9BFECF9CB991919111FACF0895CF9347
:10031000DF93CDB7DEB72A970FB6F894DEBF0FBED6
:10032000CDBF4AE0BE016F5F7F4F90E00E94200585
:100330008981882341F0FE0132965D9BFECF8CB906
:1003400081918111FACF2A960FB6F894DEBF0FBEC5
:10035000CDBFDF91CF910895CF93DF9300D000D030
:10036000CDB7DEB788EE93E09A83898348EC54E1F9
:1003700089819A819C01215031093A832983892BF3
:1003800061F05C834B838B819C819C0121503109FE
:100390003C832B83892BB9F7EBCF0F900F900F90F5
:1003A0000F90DF91CF91089590E49FBD88608EBD3E
:1003B0007BBD6ABD1DBC1CBC8D9A089593E89FBD92
:1003C0008EBD7BBD6ABD1DBC1CBC8D9A0895B998BD
:1003D00087E08EBD1DBC1CBC88E192E00E947F00BE
:1003E0001EBC6CB57DB5660F771F80E090E0089568
:1003F0001F920F920FB60F9211248F939F931DBCE3
:100400001CBC80917A0090917B00019690937B00B8
:1004100080937A009F918F910F900FBE0F901F9045
:10042000189582E08EBD10927B0010927A0080E5D4
:1004300093EC9BBD8ABD8FEF9FEF99BD88BD80E196
:1004400089BF88BF1DBC1CBC789408951EBC209138
:100450007A0030917B004CB55DB5F894A0E5B3EC23
:100460000E943D03640F751F811D911D089597B370
:1004700021E030E002C0220F331F8A95E2F7822F7D
:100480008095982397BB86B390E082239323892B92
:10049000D1F786B390E082239323892BD1F382E0B6
:1004A0008EBD10927B0010927A0080E593EC9BBD8C
:1004B0008ABD8FEF9FEF99BD88BD80E189BF88BF5E
:1004C0001DBC1CBC789486B390E082239323892BB7
:1004D000D1F71EBC20917A0030917B004CB55DB500
:1004E000F894A0E5B3EC0E943D03640F751F811DD5
:1004F000911D0895CF93DF93CDB7DEB7E2970FB686
:10050000F894DEBF0FBECDBF80E096E90E944601A1
:100510001ABA81E08BBB87BB80E281BBCE010F960C
:100520007C01C0985F990CC0959A84E190E00E948C
:100530007F00959884E190E00E947F005F9BF4CF5C
:100540008CB1813071F7C09A0E941102C899FECF18
:100550000E9426020E94F40320E030E04AE754E4BF
:100560000E944C034B015C0180E690E00E947B01FD
:10057000C501B4010E94BE032AE0AE014F5F5F4F88
:100580000E94EF048981882379F00E9477018E010F
:100590000E5F1F4FF80181918F01882329F00E947F
:1005A0007701E016F106B1F78AE00E94770120E0BA
:1005B00030E445EF53E4C501B4010E948204A50173
:1005C00094010E94820420E030E04AE754E40E9453
:1005D0004C034B015C018BE690E00E947B0120E024
:1005E00030E04AE754E4C501B4010E944C0320E026
:1005F00030E040E251E40E9482040E94BE032AE0FF
:10060000AE014F5F5F4F0E94EF048981882379F02C
:100610000E9477018E010E5F1F4FF80181918F01BB
:10062000882329F00E9477010E151F05B1F78AE093
:100630000E94770176CFA1E21A2EAA1BBB1BFD01F7
:100640000DC0AA1FBB1FEE1FFF1FA217B307E407B1
:10065000F50720F0A21BB30BE40BF50B661F771F09
:10066000881F991F1A9469F76095709580959095E9
:100670009B01AC01BD01CF010895A29FB001B39FC2
:10068000C001A39F700D811D1124911DB29F700D9B
:10069000811D1124911D08950E9460030C9448044B
:1006A0000E94410458F00E943A0440F029F45F3F50
:1006B00029F00C94310451110C947C040C943704EF
:1006C0000E94590468F39923B1F3552391F3951BC4
:1006D000550BBB27AA2762177307840738F09F5F63
:1006E0005F4F220F331F441FAA1FA9F335D00E2ED0
:1006F0003AF0E0E832D091505040E695001CCAF73D
:100700002BD0FE2F29D0660F771F881FBB1F2617FF
:1007100037074807AB07B0E809F0BB0B802DBF01D6
:10072000FF2793585F4F3AF09E3F510578F00C94A5
:1007300031040C947C045F3FE4F3983ED4F3869537
:1007400077956795B795F7959F5FC9F7880F911DC6
:100750009695879597F90895E1E0660F771F881FB2
:10076000BB1F621773078407BA0720F0621B730B65
:10077000840BBA0BEE1F88F7E09508950E94C5031D
:100780006894B1110C947C0408950E94610488F06F
:100790009F5798F0B92F9927B751B0F0E1F0660F45
:1007A000771F881F991F1AF0BA95C9F714C0B13086
:1007B00091F00E947B04B1E008950C947B04672FB4
:1007C000782F8827B85F39F0B93FCCF386957795B5
:1007D0006795B395D9F73EF490958095709561959E
:1007E0007F4F8F4F9F4F0895E89409C097FB3EF4C9
:1007F00090958095709561957F4F8F4F9F4F99236E
:10080000A9F0F92F96E9BB279395F69587957795EB
:100810006795B795F111F8CFFAF4BB0F11F460FFAB
:100820001BC06F5F7F4F8F4F9F4F16C0882311F003
:1008300096E911C0772321F09EE8872F762F05C017
:10084000662371F096E8862F70E060E02AF09A95B2
:10085000660F771F881FDAF7880F9695879597F9A7
:10086000089597F99F6780E870E060E008959FEF32
:1008700080EC089500240A94161617061806090637
:10088000089500240A941216130614060506089506
:10089000092E0394000C11F4882352F0BB0F40F48E
:1008A000BF2B11F460FF04C06F5F7F4F8F4F9F4FCE
:1008B000089557FD9058440F551F59F05F3F71F050
:1008C0004795880F97FB991F61F09F3F79F08795B7
:1008D0000895121613061406551FF2CF4695F1DF40
:1008E00008C0161617061806991FF1CF86957105D0
:1008F000610508940895E894BB2766277727CB0104
:1009000097F908950E9495040C9448040E943A04B3
:1009100038F00E94410420F0952311F00C9431042A
:100920000C94370411240C947C040E94590470F335
:10093000959FC1F3950F50E0551F629FF001729F84
:10094000BB27F00DB11D639FAA27F00DB11DAA1F93
:10095000649F6627B00DA11D661F829F2227B00DE0
:10096000A11D621F739FB00DA11D621F839FA00D6B
:10097000611D221F749F3327A00D611D231F849FBB
:10098000600D211D822F762F6A2F11249F57504012
:100990009AF0F1F088234AF0EE0FFF1FBB1F661F8D
:1009A000771F881F91505040A9F79E3F510580F056
:1009B0000C9431040C947C045F3FE4F3983ED4F330
:1009C000869577956795B795F795E7959F5FC1F7FA
:1009D000FE2B880F911D9695879597F90895BB2753
:1009E0002A3051F4992342F4BDE290958095709598
:1009F00061957F4F8F4F9F4F0C94FF04BB27FA01E7
:100A0000A62F6217710581059105330B30FB66F047
:100A1000AA27660F771F881F991FAA1FA21710F019
:100A2000A21B63953850A9F7A05DAA3308F0A95D11
:100A3000A19336F7B111B1931082CA010C943A0513
:100A4000BB27FB015527AA27880F991FAA1FA417A8
:100A500010F0A41B83955051B9F7A05DAA3308F09C
:100A6000A95DA193009779F7B111B1931192CB01D0
:100A70000C943A05DC01FC01672F71917723E1F7B3
:100A8000329704C07C916D9370836291AE17BF075B
:080A9000C8F30895F894FFCFAC
:100A980054696D65286D73293A200044697374613F
:0A0AA8006E6365286D6D293A200089
:00000001FF
