:100000000C942A000C9447000C9447000C94470071
:100010000C9447000C9447000C9447000C949201F8
:100020000C9447000C9447000C9447000C94470034
:100030000C9447000C9447000C9447000C94470024
:100040000C9447000C9447000C9447000C94470014
:100050000C94470011241FBECFE5D8E0DEBFCDBF12
:1000600010E0A0E6B0E0E4E9F1E102C005900D92F5
:10007000A039B107D9F720E0A0E9B0E001C01D9296
:10008000A739B207E1F70E9426060C94C8080C9421
:100090000000CF93DF9300D0CDB7DEB79A8389837A
:1000A00089819A81892B49F089819A8101979A8364
:1000B000898389819A81892BB9F70F900F90DF91FD
:1000C000CF9108950C944900CF93DF9300D0CDB722
:1000D000DEB764E370E0019768F07A836983298171
:1000E0003A81A901415051095A834983232BB9F719
:1000F000019798F70F900F90DF91CF910895CF93CC
:10010000DF9300D0CDB7DEB764E172E0019768F00D
:100110007A83698329813A81A901415051095A831F
:100120004983232BB9F7019798F70F900F90DF9130
:10013000CF910895FB01843691053CF120E001C088
:10014000232F31E0320F8456910984369105C4F78C
:100150003323D9F0DF0111962F5C20838A3091057B
:10016000DCF020E001C0232F31E0320F0A978A3003
:100170009105CCF72F5CFD0131962C9318161906CA
:100180004CF4805D8083118208958A309105B4F328
:10019000DF01E7CF80E3F6CF20E3EDCF803127E228
:1001A00092070CF458C09C0120513742203147E29D
:1001B00034070CF45EC0205137422031A7E23A07E1
:1001C0000CF45AC08053954722E0FB0131962F5C16
:1001D000DB012C93883EB3E09B070CF453C020E076
:1001E00001C0232F31E0320F885E9340883E43E008
:1001F0009407BCF72F5CBF016F5F7F4F208384366D
:100200009105ECF120E001C0232F31E0320F84563C
:10021000910984369105C4F72F5CFB016F5F7F4F16
:1002200020838A30910584F120E001C0232F31E042
:10023000320F0A978A309105CCF72F5CFB0131967B
:10024000DB012C931816190624F4805D808311823B
:10025000089580E3FBCF883EB3E09B0714F0FB01D9
:10026000BECF8436910574F68A309105ECF6FB0119
:10027000E9CFC90120E0A9CFC90121E0A6CFFB0148
:1002800020E3CCCF20E3B7CF20E3D8CFCF93DF93C9
:1002900000D000D0CDB7DEB788EE93E09A83898393
:1002A00048EC54E189819A819C01215031093A83BB
:1002B0002983892B61F05C834B838B819C819C011A
:1002C000215031093C832B83892BB9F7EBCF0F9059
:1002D0000F900F900F90DF91CF91089590E49FBD04
:1002E00088608EBD7BBD6ABD1DBC1CBC8D9A089507
:1002F00093E89FBD8EBD7BBD6ABD1DBC1CBC8D9AA5
:100300000895B99887E08EBD1DBC1CBC88E192E0C1
:100310000E947F001EBC6CB57DB5660F771F80E024
:1003200090E008951F920F920FB60F9211248F93B1
:100330009F931DBC1CBC80919500909196000196E6
:1003400090939600809395009F918F910F900FBE90
:100350000F901F90189582E08EBD1092960010921B
:10036000950080E593EC9BBD8ABD8FEF9FEF99BD13
:1003700088BD80E189BF88BF1DBC1CBC78940895EE
:100380001EBC20919500309196004CB55DB5F89457
:10039000A0E5B3EC0E94D506640F751F811D911D69
:1003A000089597B321E030E002C0220F331F8A95F1
:1003B000E2F7822F8095982397BB86B390E0822343
:1003C0009323892BD1F786B390E082239323892B43
:1003D000D1F382E08EBD109296001092950080E5D8
:1003E00093EC9BBD8ABD8FEF9FEF99BD88BD80E1E7
:1003F00089BF88BF1DBC1CBC789486B390E0822363
:100400009323892BD1F71EBC209195003091960043
:100410004CB55DB5F894A0E5B3EC0E94D506640F29
:10042000751F811D911D089511B886E480B984E07F
:1004300086BF85B3836085BB0895FC01A09A85B310
:100440008C7F85BB85B3836085BB84B38C7F84BB85
:1004500085B3836085BB91E020E533EC80E074EAEE
:1004600064E854E976BF06B607FE06C01BC02150FB
:10047000310906B607FC16C021153105C1F7292F31
:10048000220F23B966BF06B607FE00C020E030E0A9
:10049000A89541B14C7F4831E9F056BF9F5F903835
:1004A00009F70895492F440F43B966BF06B607FC04
:1004B000EFCF2115310521F4E9CF2115310541F3A5
:1004C0002150310906B607FEF8CFA89541B14C7FFF
:1004D000483119F790838F5F3196DFCF94EA96BF4A
:1004E00006B607FC44C020E137E203C02115310500
:1004F000A1F12150310906B607FEF8CF880F83B964
:1005000084E886BF06B607FC08C02115310561F1F5
:100510002150310906B607FEF8CF8FEF840F442330
:10052000A1F0FB0144E8919193B946BF06B607FEDE
:1005300006C008C02150310906B607FC03C02115CA
:100540003105C1F7A895815070F784E986BF81E035
:10055000232B11F080E008950895880F83B984E873
:1005600086BF06B607FCD9CF20E030E0D6CF880F93
:1005700083B984E886BF20E137E206B607FEC8CF1C
:10058000CCCF94EA96BF06B607FC98C0E0E1F7E24C
:1005900002C0309711F1319706B607FEFACF982FB7
:1005A000990F93B994E896BF06B607FC06C030973A
:1005B000D1F0319706B607FEFACF63B994E896BF3B
:1005C00006B607FC18C0309719F413C0309799F09D
:1005D000319706B607FEFACF0EC0982F990F93B940
:1005E00094E896BF96B763B994E896BF06B607FE3F
:1005F00000C0E0E0F0E0A89594EA96BF06B607FEDA
:1006000005C047C0319706B607FC43C03097D1F705
:10061000880F816083B984EC86BF06B607FE00C0F0
:10062000E0E0F0E02230C8F0DA012250822F90E0C2
:100630000196480F591F94EC96BF06B607FE05C0F9
:1006400006C0319706B607FC02C03097D1F783B1D8
:100650008D93A895A417B50779F784E886BF06B6E9
:1006600007FE05C00DC0319706B607FC09C03097DC
:10067000D1F783B1FA01808384E986BF81E00895D0
:1006800083B1DA018C9384E986BF81E0EF2BA1F47A
:100690000895880F816083B984EC86BF06B607FC95
:1006A000C1CF309721F4BCCF309709F4BBCF31973D
:1006B00006B607FEF9CFB6CF80E00895982F990FC0
:1006C00093B994E896BF06B607FC03C0E0E1F7E2F1
:1006D00070CF63B996BFE0E1F7E206B607FE78CFC8
:1006E0008ACF84EA86BF06B607FEFDCF81B1887F38
:1006F000883039F081B1887F803119F081B1887FED
:10070000089580E0089584E986BF089588EE93E017
:10071000A0E0B0E08093900090939100A0939200AD
:10072000B093930006B607FC2EC087EE93E0A0E0DE
:10073000B0E08093900090939100A0939200B093CA
:1007400093001AC08091900090919100A091920026
:10075000B0919300AC01BD0141505109610971098B
:100760004093900050939100609392007093930097
:10077000892B8A2B8B2B39F081E090E00E94490075
:1007800006B607FEDFCF089548EE53E060E070E064
:100790004093900050939100609392007093930067
:1007A00083B984E886BF06B607FEFDCF81B1887F96
:1007B000883219F081B1887F089580E00895CF9341
:1007C000C82F0E94710380919400880F0E94C40377
:1007D0008C2F0E94C4030E94830388EE93E0CF9184
:1007E0000C94490090919400911101C008950C94CB
:1007F000DF03CF93DF9390919400911103C0DF91B9
:10080000CF910895C62FD82F0E9471038091940034
:10081000880F0E94C4038D2F0E94C4038C2F0E9456
:10082000C4030E94830388EE93E0DF91CF910C9480
:100830004900CF93C82F80919400811112C084EF9A
:1008400091E00E94490080919400882329F08C2F28
:10085000837F88600E94DF0380ED97E0CF910C9446
:1008600049008C2F8C600E94DF03E9CFCF93C82F03
:1008700080919400882321F08C2F88600E94DF03F0
:100880008C2FCF910C941904CF93DF939091940007
:10089000992349F1C82FD82FD07F8D2F88600E94CF
:1008A000DF038091940081112AC088EE93E00E94BA
:1008B00049008091940081112EC088EE93E00E943F
:1008C000490080919400811131C088EE93E00E942C
:1008D000490080919400811109C088EE93E0DF9176
:1008E000CF910C944900DF91CF91089588E00E9448
:1008F000DF0388EE93E0DF91CF910C9449008D2FB8
:100900008C600E94DF0388EE93E00E944900809192
:100910009400882391F288E00E94DF0388EE93E040
:100920000E94490080919400882379F280E1C89F59
:10093000E00111248C2F88600E94DF038C2F8C60D3
:1009400090919400992309F20E94DF0388EE93E0CE
:100950000E94490080919400882309F4BECFC6CF3D
:1009600084B3836084BB85B3836085BB84B38C7F91
:1009700084BB8CE080B988EE93E00E9449000E941D
:1009800071038EE70E94C40381B18C7F8831A1F18D
:100990000E9483030E9471038EE40E94C40381B10C
:1009A0008C7F883119F487E2809394000E9483033E
:1009B00084E690E00E94490083E00E94440483E0C2
:1009C0000E94440483E00E94440482E00E944404A4
:1009D00088E20E9444048CE00E94440481E00E946A
:1009E000440486E00E94440480E29EE40E944900A0
:1009F0008091940090E008958FE380939400C8CF95
:100A0000CF93DF9390919400992349F1C82FD82F69
:100A1000D07F8D2F89600E94DF0380919400811127
:100A20002AC088EE93E00E944900809194008111D1
:100A30002EC088EE93E00E944900809194008111BD
:100A400031C088EE93E00E944900809194008111AA
:100A500009C088EE93E0DF91CF910C944900DF91BB
:100A6000CF91089588E00E94DF0388EE93E0DF9144
:100A7000CF910C9449008D2F8D600E94DF0388EE8A
:100A800093E00E94490080919400882391F288E0CD
:100A90000E94DF0388EE93E00E9449008091940059
:100AA000882379F280E1C89FE00111248C2F8960AE
:100AB0000E94DF038C2F8D6090919400992309F29E
:100AC0000E94DF0388EE93E00E9449008091940029
:100AD000882309F4BECFC6CFBF92CF92DF92EF92A8
:100AE000FF920F931F93CF93DF938C01B62E81E07B
:100AF000681709F45DC092E0691709F45DC0E3E08E
:100B00006E1709F45DC0F4E06F1709F45DC0780159
:100B1000C0E0D0E020E030E00BC06901FFEFCF1A69
:100B2000DF0A0E94000596012196FFEFEF1AFF0AE7
:100B3000F80101900020E9F73197E01BF10BCE1787
:100B4000DF07D8F4C032D105C1F02031310561F0A2
:100B5000F70180818A3009F791E0B916C1F0690187
:100B6000EFEFCE1ADE0ADDCF81E0B816B1F0F70163
:100B7000808191E1C92ED12CD4CFDF91CF911F91EB
:100B80000F91FF90EF90DF90CF90BF90089580EC91
:100B90000E94440421E030E0C7CF84E10E94440475
:100BA000F70180818A3099F3CC24C394D12CB9CF3A
:100BB00080E80E944404ABCF80EC0E944404A7CF9D
:100BC00084E90E944404A3CF84ED0E9444049FCF93
:100BD000EF92FF920F931F93CF93DF932091940096
:100BE000211107C0DF91CF911F910F91FF90EF90DE
:100BF00008958C0188EC0E9444047801C0E0D0E0A4
:100C000009C0C032D10571F3F70181917F010E94C3
:100C100000052196F80101900020E9F73197E01BCB
:100C2000F10BCE17DF0768F3DF91CF911F910F9182
:100C3000FF90EF90089580919400811101C0089574
:100C400081E00E94440482E00C944404CF93DF933B
:100C5000CDB7DEB7E2970FB6F894DEBF0FBECDBFBB
:100C60000E9414020E94B0041ABA87E08BBB8FE77F
:100C700087BB81E081BB61E080E690E00E946C056B
:100C8000D89AC99985C0C99912C0C99910C088B3AA
:100C90008F6788BB84E690E00E947F0088B38078ED
:100CA00088BB84E690E00E947F00C99BF0CF0E9441
:100CB000AB01D8980E941B0661E080E790E00E949B
:100CC0006C05C89968C0C89B6BC00E94C0010E9497
:100CD0008C0720E030E04AE754E40E94E4066B0110
:100CE0007C0161E086E790E00E946C05C701B601D7
:100CF0000E9456072AE0AE014F5F5F4F0E948708AF
:100D000060E0CE0101960E946C0520E030E445EFE2
:100D100053E4C701B6010E941A08A70196010E9478
:100D20001A0820E030E04AE754E40E94E4066B0130
:100D30007C0162E081E890E00E946C0520E030E0F8
:100D40004AE754E4C701B6010E94E40620E030E01F
:100D500040E251E40E941A080E9456072AE0AE01C0
:100D60004F5F5F4F0E94870860E0CE0101960E94AE
:100D70006C0586CF88B38F6788BB84E690E00E94BD
:100D80007F0088B3807888BB84E690E00E947F0073
:100D9000C999F0CF8CCFC89B98CFC899FCCF95CF7D
:100DA000C89993CFC89BFCCF90CFA29FB001B39FAF
:100DB000C001A39F700D811D1124911DB29F700D64
:100DC000811D1124911D08950E94F8060C94E007DE
:100DD0000E94D90758F00E94D20740F029F45F3FE3
:100DE00029F00C94C90751110C9414080C94CF07E6
:100DF0000E94F10768F39923B1F3552391F3951BF2
:100E0000550BBB27AA2762177307840738F09F5F2B
:100E10005F4F220F331F441FAA1FA9F335D00E2E98
:100E20003AF0E0E832D091505040E695001CCAF705
:100E30002BD0FE2F29D0660F771F881FBB1F2617C8
:100E400037074807AB07B0E809F0BB0B802DBF019F
:100E5000FF2793585F4F3AF09E3F510578F00C946E
:100E6000C9070C9414085F3FE4F3983ED4F38695C9
:100E700077956795B795F7959F5FC9F7880F911D8F
:100E80009695879597F90895E1E0660F771F881F7B
:100E9000BB1F621773078407BA0720F0621B730B2E
:100EA000840BBA0BEE1F88F7E09508950E945D074A
:100EB0006894B1110C94140808950E94F90788F001
:100EC0009F5798F0B92F9927B751B0F0E1F0660F0E
:100ED000771F881F991F1AF0BA95C9F714C0B1304F
:100EE00091F00E941308B1E008950C941308672F45
:100EF000782F8827B85F39F0B93FCCF3869577957E
:100F00006795B395D9F73EF4909580957095619566
:100F10007F4F8F4F9F4F0895E89409C097FB3EF491
:100F200090958095709561957F4F8F4F9F4F992336
:100F3000A9F0F92F96E9BB279395F69587957795B4
:100F40006795B795F111F8CFFAF4BB0F11F460FF74
:100F50001BC06F5F7F4F8F4F9F4F16C0882311F0CC
:100F600096E911C0772321F09EE8872F762F05C0E0
:100F7000662371F096E8862F70E060E02AF09A957B
:100F8000660F771F881FDAF7880F9695879597F970
:100F9000089597F99F6780E870E060E008959FEFFB
:100FA00080EC089500240A94161617061806090600
:100FB000089500240A9412161306140605060895CF
:100FC000092E0394000C11F4882352F0BB0F40F457
:100FD000BF2B11F460FF04C06F5F7F4F8F4F9F4F97
:100FE000089557FD9058440F551F59F05F3F71F019
:100FF0004795880F97FB991F61F09F3F79F0879580
:101000000895121613061406551FF2CF4695F1DF08
:1010100008C0161617061806991FF1CF8695710598
:10102000610508940895E894BB2766277727CB01CC
:1010300097F908950E942D080C94E0070E94D207AA
:1010400038F00E94D90720F0952311F00C94C907BD
:101050000C94CF0711240C9414080E94F10770F32C
:10106000959FC1F3950F50E0551F629FF001729F4D
:10107000BB27F00DB11D639FAA27F00DB11DAA1F5C
:10108000649F6627B00DA11D661F829F2227B00DA9
:10109000A11D621F739FB00DA11D621F839FA00D34
:1010A000611D221F749F3327A00D611D231F849F84
:1010B000600D211D822F762F6A2F11249F575040DB
:1010C0009AF0F1F088234AF0EE0FFF1FBB1F661F56
:1010D000771F881F91505040A9F79E3F510580F01F
:1010E0000C94C9070C9414085F3FE4F3983ED4F3C2
:1010F000869577956795B795F795E7959F5FC1F7C3
:10110000FE2B880F911D9695879597F90895BB271B
:101110002A3051F4992342F4BDE290958095709560
:1011200061957F4F8F4F9F4F0C949708BB27FA0113
:10113000A62F6217710581059105330B30FB66F010
:10114000AA27660F771F881F991FAA1FA21710F0E2
:10115000A21B63953850A9F7A05DAA3308F0A95DDA
:10116000A19336F7B111B1931082CA010C94B8085B
:10117000DC01FC01672F71917723E1F7329704C0FE
:101180007C916D9370836291AE17BF07C8F3089589
:04119000F894FFCF01
:101194004D454153555245204752415649545900F3
:1011A40044524F50210054696D65286D73293A20CB
:1011B4000044697374616E636528636D293A200085
:00000001FF
